:08000000803102288731FD2F39
:100EA000873170278731532F103031008D008F012B
:100EB0009101053093009201101808005C2F3C004E
:100EC00091012030920093012030940095018030F0
:100ED0009600013097009801990184309000080035
:100EE0008731C12787318731542787318731972749
:100EF000873187318227873187315F278731873173
:100F0000AC2708003C009B0120309C0020309D0055
:100F100020309E0020309F000230A0000230A1004F
:100F20000230A2000230A30082309A0008003C0088
:100F3000A5012130A6002130A7002130A8002130D2
:100F4000A9000230AA000230AB000230AC0002302F
:100F5000AD008230A40008003C00AF012230B00098
:100F60002230B1002230B2002230B3000230B4008F
:100F70000230B5000230B6000230B7008230AE0059
:100F800008002000960197019801FF309100FF3082
:100F9000920087309300FF303E00CE00FF30C30048
:100FA000FE30B800E501C401B901CF01BA01C501A5
:100FB000D00100308B1B0130F0008B1355303D0009
:100FC0008F00AA308F000F1003303E00A5000430C0
:100FD000A6000130A300E0303D00BB0502303E001A
:100FE000A40055303D008F00AA308F000F14701CF4
:100FF000FB2F8B1708008B13080020008731502F20
:020000040001F9
:0A000E009C3FFF3B9F3FFF3FFF3F79
:00000001FF
